:0200000420409A
:100000009711C05F938101FA9702000093828201E9
:100010007390523093021000638402007350107C7E
:100020009702000093824211739052301301000036
:100030006314010013810133732540F181421303DE
:100040000040137101FF6385A2001A918502D5BF9C
:10005000970000009380C00763830000829073259F
:1000600040F181450146ED209300000063830000CC
:100070008290970200009382C20073905230032353
:100080000000F5BF000000008280A14673B3063077
:10009000914263C555001376350011CA230005004F
:1000A0000505FD15E347B0FE731003308280232061
:1000B00005001105F115E34EB0FC7310033082808A
:1000C000232003001103E34D73FE82800684970210
:1000D000C0DF938222F3638C02049702C0DF938215
:1000E00062F2F32740F1A14673B006300A8397030A
:1000F000C0DF938323318A9363037300D1376398FE
:1001000057021703C05F1303E3EF9703C05F9383A6
:10011000E36B630373006D371703C05F130383EE54
:100120009703C05F938303EE63037300513FA28084
:1001300082800000F322203473231034F323303400
:10014000D5BF411122C6000801003244410182801E
:1001500006849711C05F9381E1E49302000063116C
:10016000550E977200009382E22D1703C05F1303B0
:1001700063E99703C05F93836365638C6200635A8E
:10018000730003A5020091022320A3001103E34A98
:1001900073FE97120000938262E61703C05F130399
:1001A00063E69703C05F9383E3E5638C6200635A61
:1001B000730003A5020091022320A3001103E34A68
:1001C00073FE0F10000097120000938222E31703C2
:1001D000C05F130323E39703C05F9383A3E2638CA1
:1001E0006200635A730003A5020091022320A3005A
:1001F0001103E34A73FE0F1000001703C05F1303DF
:10020000E35C938301F3635773002320030011031E
:10021000E34D73FE1702C05F1302425B11C20296E8
:10022000172500001305E57FEF20807BEF2090026B
:10023000173500001305A5ACEF20807AEF20B02A17
:100240000937FD5673B0463073B04634F32710308B
:10025000372704007D8F09C773B0363073B026305E
:10026000370704007D8F19C373B006184167130761
:100270008702F98F89CBF32700300967D98F7390F4
:10028000073073503000F327103037072000F98F04
:1002900099C7F327003093E707207390073005458F
:1002A000970500009385451E170600001306061EDD
:1002B0003120EF202074A28082808280411106C20A
:1002C000F32240F1130300006385620073005010B5
:0C02D000F5BFEF00B07692404101828043
:0C02E000EC024020100340203C034020B2
:1002EC00411106C622C40008F16793850720B707A1
:1002FC00008013858775EF2030230100B240224423
:10030C0041018280011106CE22CC0010EF506071A9
:10031C002326A4FE8327C4FE99C7B7070080138544
:10032C000779EF50C0780100F24062440561828089
:10033C00011106CE22CC0010EF50A06E2326A4FE95
:10034C008325C4FEB707008013850779EF603064FE
:0A035C000100F24062440561828056
:10036800524953432D56204B65726E656C00000050
:10037800556E6B6E6F776E20696E746572727570EC
:10038800743A2025780A20000000000000000000D0
:100398000000000000000000000000000000000055
:1003A8000000000000000000000000000000000045
:1003B8000000000000000000000000000000000035
:1003C8000000000000000000000000000000000025
:1003D8000000000000000000000000000000000015
:1003E8000000000000000000232D302B200000003A
:1003F800686C4C006566674546470000303132330B
:100408003435363738394142434445460000000008
:100418003031323334353637383961626364656672
:1004280000000000C6210000DC2100009C21000023
:100438009C2100009C2100009C210000DC21000080
:100448009C2100009C2100009C2100009C210000B0
:10045800322300001A220000042300009C2100001F
:100468009C210000622300009C2100001A22000049
:100478009C2100009C2100000C2300008C044020DB
:10048800000000006C6962676C6F73730000000005
:10049800E02F4020863140206A31402000000000D3
:1004A8000000000088344020BC34402068304020E0
:1004B80042314020DE3140209032402000000000D0
:1004C8000000000000000000000000000000000024
:1004D8000000000000000000000000004833402039
:1004E800142F402000000000000000000000000061
:1004F800000000007E464020E4464020E4464020BC
:1005080090464020E4464020E4464020E44640200F
:10051800A2464020E4464020E4464020E4464020ED
:10052800B4464020E4464020E4464020E4464020CB
:10053800E4464020C6464020C6464020C6464020E5
:10054800C6464020C6464020C6464020C6464020F3
:10055800C6464020C6464020C6464020C6464020E3
:10056800C6464020C6464020C6464020C6464020D3
:10057800C646402046474020804A4020644A4020E2
:100588000000000000000000000000000000000063
:100598002A484020000000000C4A4020384A4020E9
:1005A8000000000000000000000000000000000043
:1005B8000000000000000000000000000000000033
:1005C800D44A4020000000000000000000000000A5
:1005D8000000000000000000F04A4020604B40206E
:1005E800A64B40200C4C4020824C40209C4C402084
:1005F800B04C4020CA4C4020DE4C4020404D4020AA
:10060800A24D4020024E4020224E4020684E4020FD
:10061800964E4020B44E4020D44E4020D652402022
:1006280000000000000000000000000000000000C2
:1006380000000000000000003054402000000000CE
:10064800F254402042554020000000000000000005
:10065800C2554020925540203A514020D850402061
:100668000000000000000000000000000000000082
:10067800EA55402086564020225740209657402071
:100688000100000020000000001BB70000366E01CA
:10069800010000001F000000030000003F000000F0
:1006A800010000002000000000366E01006CDC0232
:1006B800030000001F000000020000003F000000CF
:1006C8000100000010000000808D5B00001BB700D7
:1006D800000000001F000000030000003F000000B1
:1006E8000100000010000000001BB70000366E017A
:1006F800010000001F000000020000003F00000091
:10070800010000001000000000366E01006CDC02E1
:10071800030000001F000000020000001F0000008E
:100728000100000008000000808D5B00001BB7007E
:10073800000000001F000000030000001F00000070
:100748000100000008000000001BB70000366E0121
:10075800010000001F000000020000001F00000050
:10076800010000000800000000366E01006CDC0289
:10077800030000001F000000020000000F0000003E
:100788000100000004000000808D5B00001BB70022
:10079800000000001F000000030000000F00000020
:1007A8000100000004000000001BB70000366E01C5
:1007B800010000001F000000020000000F00000000
:1007C800010000000400000000366E01006CDC022D
:1007D800030000001F0000000200000007000000E6
:1007E8000100000002000000808D5B00001BB700C4
:1007F800000000001F000000020000000F000000C1
:100808000100000002000000001BB70000366E0166
:10081800010000001F000000010000000F000000A0
:10082800010000000200000000366E01006CDC02CE
:10083800030000001F000000010000000700000086
:100848000200000001000000808D5B00001BB70063
:10085800000000001F000000010000000700000069
:100868000200000001000000001BB70000366E0106
:10087800010000001F00000001000000030000004C
:10088800020000000100000000366E01006CDC026E
:10089800030000001F00000003000000FFFFFFFF2F
:1008A8000400000001000000808D5B00001BB70001
:1008B800000000001F00000003000000000000000E
:1008C8000400000001000000001BB70000366E01A4
:1008D800010000001F00000003000000FFFFFFFFF1
:1008E800040000000100000000366E01006CDC020C
:1008F800030000001F00000002000000FFFFFFFFD0
:100908000600000001000000808D5B00AAC2A20062
:1009180000000000230000000100000002000000A9
:100928000600000001000000AAC2A200001BB700D8
:10093800000000001700000003000000FFFFFFFF99
:100948000600000001000000001BB7000024F400AE
:10095800010000002F00000003000000FFFFFFFF60
:1009680006000000010000000024F40080A8120125
:10097800010000001700000002000000FFFFFFFF59
:10098800060000000100000080A8120155854501FD
:10099800020000002300000002000000FFFFFFFF2C
:1009A8000800000001000000808D5B00001BB700FC
:1009B800000000001F00000003000000FFFFFFFF11
:1009C8000800000001000000001BB70000366E019F
:1009D800010000001F00000002000000FFFFFFFFF1
:1009E800080000000100000000366E01006CDC0207
:1009F800030000001F00000001000000FFFFFFFFD0
:100A08000A00000001000000808D5B00007C92005D
:100A1800000000002700000003000000FFFFFFFFA8
:100A28000A00000001000000007C9200001BB700D3
:100A3800000000001300000002000000FFFFFFFF9D
:100A48000A00000001000000001BB70000F82401A4
:100A5800010000002700000002000000FFFFFFFF68
:100A68000A0000000100000000F8240100366E01B1
:100A7800010000001300000001000000FFFFFFFF5D
:100A88000A0000000100000000366E0100F0490273
:100A9800030000002700000001000000FFFFFFFF27
:100AA8000C00000001000000808D5B0000127A003D
:100AB800000000002F00000003000000FFFFFFFF00
:100AC8000C0000000100000000127A00001BB700B3
:100AD800000000001700000002000000FFFFFFFFF9
:100AE8000C00000001000000001BB7000024F40007
:100AF800010000002F00000002000000FFFFFFFFC0
:100B08000C000000010000000024F40000366E0113
:100B1800010000001700000001000000FFFFFFFFB8
:100B28000C0000000100000000366E0180C3C901FE
:100B3800030000002F00000001000000FFFFFFFF7E
:100B48000C0000000100000080C3C9010048E80152
:100B5800030000002F00000001000000FFFFFFFF5E
:100B68000E00000001000000808D5B00B6A1680047
:100B7800000000003700000003000000FFFFFFFF37
:100B88000E00000001000000B7A16800001BB700BC
:100B9800000000001B00000002000000FFFFFFFF34
:100BA8000E00000001000000001BB7006D43D100DB
:100BB800010000003700000002000000FFFFFFFFF7
:100BC8000E000000010000006E43D10000366E01E7
:100BD800010000001B00000001000000FFFFFFFFF4
:100BE8000E0000000100000000366E01DB86A20145
:100BF800030000003700000001000000FFFFFFFFB6
:100C08001000000001000000808D5B00001BB70091
:100C1800000000001F00000002000000FFFFFFFFAF
:100C28001000000001000000001BB70000366E0134
:100C3800010000001F00000001000000FFFFFFFF8F
:100C48001200000001000000808D5B00AAC2A20013
:100C5800000000002300000002000000FFFFFFFF6B
:100C68001200000001000000ABC2A200001BB70088
:100C7800000000001100000001000000FFFFFFFF5E
:100C88001200000001000000001BB7005585450157
:100C9800010000002300000001000000FFFFFFFF2B
:100CA8001400000001000000808D5B00007C9200B1
:100CB800000000002700000002000000FFFFFFFF07
:100CC8001400000001000000007C9200001BB70027
:100CD800000000001300000001000000FFFFFFFFFC
:100CE8001400000001000000001BB70000F82401F8
:100CF800010000002700000001000000FFFFFFFFC7
:100D08001600000001000000808D5B00E82A8500C5
:100D1800000000002B00000002000000FFFFFFFFA2
:100D28001600000001000000E92A8500001BB7003A
:100D3800000000001500000001000000FFFFFFFF99
:100D48001600000001000000001BB700D1550A0181
:100D5800010000002B00000001000000FFFFFFFF62
:100D68001800000001000000808D5B0000127A006E
:100D7800000000002F00000002000000FFFFFFFF3E
:100D8800180000000100000000127A00001BB700E4
:100D9800000000001700000001000000FFFFFFFF37
:100DA8001800000001000000001BB7000024F40038
:100DB800010000002F00000001000000FFFFFFFFFE
:100DC8001A00000001000000808D5B0027AE700053
:100DD800000000003300000002000000FFFFFFFFDA
:100DE8001A0000000100000028AE7000001BB700C8
:100DF800000000001900000001000000FFFFFFFFD5
:100E08001A00000001000000001BB7006658E1004E
:100E1800010000003300000001000000FFFFFFFF99
:100E28001C00000001000000808D5B00B6A1680076
:100E3800000000003700000002000000FFFFFFFF75
:100E48001C00000001000000B7A16800001BB700EB
:100E5800000000001B00000001000000FFFFFFFF72
:100E68001C00000001000000001BB7006D43D1000A
:100E7800010000003700000001000000FFFFFFFF35
:100E88001E00000001000000808D5B0000A86100CA
:100E9800000000003B00000002000000FFFFFFFF11
:100EA8001E0000000100000000A86100001BB70040
:100EB800000000001D00000001000000FFFFFFFF10
:100EC8001E00000001000000001BB7000050C30016
:100ED800010000003B00000001000000FFFFFFFFD1
:100EE8002000000001000000808D5B00001BB7009F
:100EF800000000001F00000001000000FFFFFFFFCE
:100F0800BA5A40205E5B4020365F40202E66402063
:100F1800AC664020C4664020E06640202E67402032
:100F2800126740204A674020806740206E69402051
:100F3800346840204C68402068684020B6684020EB
:100F48009A684020D26840200869402058634020B1
:100F5800186340209E634020C8634020F46340200B
:100F68003A6440207A644020BA64402000654020FA
:100F780040654020A2654020EC654020F267402093
:100F88007A6940209A6940200C704020AA6D402060
:100F9800866C4020EC6D4020426E4020626E4020FE
:100FA800626B4020826B4020A26B4020DC6B4020AB
:100FB800146C40204E6C4020B66C4020006D4020E0
:100FC800306D40207A6D4020000000801858402085
:100FD8009C584020185940208C594020AE60402031
:100FE800DC604020EE694020E2734020027440201B
:10100000011122CE0010F32740302326F4FE83275F
:10101000C4FE3E85724405618280011122CE00101B
:101020002326A4FE8327C4FE739047300100724438
:1010300005618280011122CE00102326A4FE8327A1
:10104000C4FE739057300100724405618280011123
:1010500006CE22CC00106D372326A4FE8327C4FEC3
:1010600093E707082326F4FE736004300325C4FECB
:101070006D370100F240624405618280011106CEA5
:1010800022CC0010B53F2326A4FE232604FE736065
:1010900004300325C4FE51370100F240624405616B
:1010A0008280011122CE00102326A4FE8327C4FED5
:1010B00013871700930700323307F702B717008032
:1010C000938787883E979386818D8327C4FE8E07FA
:1010D000B69798C30100724405618280011106CE63
:1010E00022CC00102326A4FE2324B4FE413F938784
:1010F000818D1387018ED8C39387818D1387818D4E
:10110000D8C70145793F0327C4FEB71700809387EE
:10111000878823A0E73205456937032784FEB71780
:1011200000809387878823A0E764032784FEB7178E
:1011300000809387878823AEE7621387818D23AA77
:10114000E18C313785473E85F240624405618280FB
:10115000411106C622C400083920492E0100B240C0
:10116000224441018280411106C622C40008B717FB
:101170004020938707503E85753D31200100B240E5
:10118000224441018280411106C622C40008B7C72B
:101190000002E1179843DC4337480002370550004E
:1011A0006D1581453306A700B288B3B8E800B38651
:1011B000B700B387D800BE863287B6872320E80001
:1011C0002322F80069350100B240224441018280A7
:1011D000411122C6000883A7418DD84323AAE18C80
:1011E0000100324441018280411106C622C4000838
:1011F0001385C1F2752CB707008083A7877C1387FE
:101200001700B707008023A4E77C138581F2A52C83
:10121000C5B7411106C622C40008138581F2492CC6
:10122000B707008083A7C77C13871700B707008024
:1012300023A6E77C1385C1F2B924C5B7411106C6C0
:1012400022C40008B707402013858736CD2B85457B
:10125000138581F2092C89451385C1F22924B7171A
:10126000402093852721B71740201385871EBD3561
:10127000C53581473E85B24022444101828001113B
:1012800006CE22CC00102326A4FE0327C4FEB707F7
:10129000008093C7F7FF7D8F9D47631EF702B7C796
:1012A0000002E1179843DC4337480002370550003D
:1012B0006D1581453306A700B288B3B8E800B38640
:1012C000B700B387D800BE863287B6872320E800F0
:1012D0002322F80039A80327C4FEB707008093C76C
:1012E000F7FFF98FBE85B70740201385873725297B
:1012F00001A0F240624405618280797106D622D451
:101300000018232EA4FC0327C4FDA1476316F7068B
:10131000B7C70002E1179843DC433748000237059E
:1013200090011D1581453306A700B288B3B8E800C7
:10133000B386B700B387D800BE863287B68723202E
:10134000E8002322F800732740302324E4FE2326FC
:10135000F4FE832784FE93E707082324F4FE832703
:10136000C4FE93E707002326F4FE731047302324BE
:10137000E4FE2326F4FE39A80327C4FDB707008046
:1013800093C7F7FFF98FBE85B707402013858737CE
:10139000592E01A0B250225445618280011106CE1F
:1013A00022CC0010F32720342326F4FEF327103438
:1013B0002324F4FE8327C4FE63D607000325C4FE5E
:1013C0007D3D09A80325C4FE0D3FF3221034910290
:1013D000739012340100F240624405618280011171
:1013E00022CE0010F32740302326F4FE8327C4FECC
:1013F0003E85724405618280011122CE00102326B1
:10140000A4FE8327C4FE7390473001007244056137
:101410008280011106CE22CC0010D1372326A4FEF3
:101420008327C4FE93E707082326F4FE7360043085
:101430000325C4FED1370100F24062440561828079
:10144000011106CE22CC0010593F2326A4FE2326EC
:1014500004FE736004300325C4FE793F0100F240AE
:10146000624405618280011122CE00102326A4FE71
:101470002324B4FE8327C4FE032784FE98C30100FF
:10148000724405618280011106CE22CC0010232611
:10149000A4FE7D378327C4FE9C4313871700832750
:1014A000C4FE98C3BD370100F240624405618280EA
:1014B000011106CE22CC00102326A4FE513719A01C
:1014C0004137813F8327C4FE9C43E35BF0FE8327C3
:1014D000C4FE9C431387F7FF8327C4FE98C3153FC0
:1014E0000100F240624405618280000083A2418DC8
:1014F00003A3020003A1020082401301C1F782800E
:10150000713D0A82228106C00AC20EC412C616C8E4
:101510001ACA1ECC72CE22D026D22AD42ED632D8C7
:1015200036DA3ADC3EDEC2C0C6C2CAC4CEC6D2C8B3
:10153000D6CADACCDECEE2D0E6D2EAD4EED6F2D803
:10154000F6DAFADCFEDEF322103416C3513183A240
:10155000418D03A102001301C1F79A427390123426
:1015600082403242C2425243E243724E025492548B
:101570002255B2554256D2566257F25706489648FF
:101580002649B649464AD64A664BF64B065C965CF7
:10159000265DB65D465ED65E665FF65F7300203000
:1015A0000000D5C183A7C5FF011122CC06CE13844C
:1015B000C5FF63D307003E942AC6EF00D01F17F77C
:1015C000BF5F130727211C43324589EB2322040008
:1015D00000C36244F24005616F00101E637DF40099
:1015E0001040B306C4006396D7009443DC43B29620
:1015F00014C05CC0F1BF3E87DC4399C3E37DF4FEB9
:1016000014433306D700631F86001040B29614C3FC
:101610003306D700E39FC7FA9043DC43B29614C366
:101620005CC345BF6375C400B1471CC15DB71040C2
:10163000B306C4006396D7009443DC43B29614C04B
:101640005CC040C379B78280011126CA93843500FB
:10165000F1984AC806CE22CC4EC6A104B1472A89C9
:1016600063F6F404B14463E5B4044A85EF00B014B2
:1016700097F6BF5F9386061698423A8429E417F4DA
:10168000BF5F130464151C4089E781454A85752AAC
:1016900008C0A6854A85552AFD59631A3507B14702
:1016A0002320F9004A85EF00301131A0E3DD04FA70
:1016B000B1472320F9000145F2406244D244424937
:1016C000B249056182801C40858F63CF07022D4699
:1016D0006376F6001CC03E9404C029A05C406313EE
:1016E00087029CC24A85EF00300D1305B4009307B2
:1016F000440061993307F540E300F5FC3A94898F83
:101700001CC05DBF5CC3F9BF2287404085BF130486
:1017100035007198E30285FCB305A4404A85352263
:10172000E31C35FBADBF5D7122D406D62A842EDAC8
:1017300032DC36DEBAC0BEC2C2C4C6C617F5BF5F51
:101740000325450611C51C4D81E72AC6A92B324544
:101750000C455418228636CEEF00F00CB2502254BD
:1017600061618280011126CA4AC806CE22CC4EC6CB
:1017700052C4AA842E8901C51C4D91E32D239C4C93
:10178000804499E32685052397F7FFFF938787C257
:10179000631CF402C0408357C400A18BB1C71C482E
:1017A000A1C7FD59294A1C4483450900FD17B1E929
:1017B0001CC463DE07062286A94526857D28FD57C1
:1017C0006308F502294535A097F7FFFF938787C087
:1017D0006314F4008044C1B797F7FFFF938787BB7A
:1017E000E31BF4FAC04445BFA2852685B92255D92A
:1017F0007D55F2406244D2444249B249224A0561D1
:1018000082801CC4050963D70700184C63CBE7002E
:10181000638945011C401387170018C02380B70057
:1018200059B7228626859128E31F35F7D1B71C408A
:101830001387170018C029472380E70061B7AA85DE
:1018400017F5BF5F032505F631BF411122C42A8475
:101850002E8597F7BF5F23A307F806C6EF10C008D1
:10186000FD576318F50097F7BF5F83A727F791C36C
:101870001CC0B240224441018280011122CC26CA00
:101880004AC806CE4EC6AA842E89328401C51C4D94
:1018900091E3112997F7FFFF9387C7B16319F40606
:1018A000C0401C4C1CC48357C400A18BC9C31C4836
:1018B000BDCF1C4808409379F90F1379F90F1D8D9E
:1018C0005C486346F500A2852685C1242DE51C44AD
:1018D0000505FD171CC41C401387170018C0238082
:1018E00037015C486389A7008357C400858B81CB8F
:1018F000A9476316F900A2852685412C0DEDF2401B
:101900006244D244B2494A8542490561828097F7D0
:10191000FFFF938727AC6314F400804459B797F70F
:10192000FFFF938727A7E31EF4F6C0449DBFA2855F
:10193000268521203DDD7D59D9B7411122C426C21B
:101940004AC006C697F4BF5F83A4C4E52A892E84E3
:1019500089C49C4C99E32685B92697F7FFFF9387A6
:1019600067A56317F402C0408317C40013970701EB
:1019700093F687004183ADEA9376070195EA254700
:101980002320E90093E707042316F4007D5571A88E
:1019900097F7FFFF938707A46314F4008044E9B727
:1019A00097F7FFFF9387079FE310F4FCC0446DBFD8
:1019B000118B0DC74C5889C9930744046384F50003
:1019C0004A85C536232A04028357C4002322040013
:1019D00093F7B7FD2316F4001C481CC08357C400BE
:1019E00093E787002316F4001C4881EF8357C40057
:1019F0001307002093F707286385E700A2854A852F
:101A000085298317C4001397070193F617004183B4
:101A10009DC2544823240400B306D04014CC14487B
:101A2000014581E61377070831FFB2402244924412
:101A300002494101828093762700014691E2504895
:101A400010C4F1BF83D7C500011122CC26CA06CE2F
:101A50004AC84EC613F78700AA842E8475E3D8417E
:101A60006347E000B8416344E000014575A858545D
:101A70006DDF856603A90400F58F23A00400A5CFC0
:101A800068488357C400918B99C75C401D8D5C5892
:101A900099C33C401D8D5C540C502A868146268596
:101AA0008297FD570357C400631DF5009440F54726
:101AB00063E3D708B70740208507B3D7D700858BE6
:101AC000BDCB1C48232204001CC085677D8F19C72D
:101AD000FD576314F5009C4091E368C84C5823A05F
:101AE0002401C1D5930744046384F5002685553C41
:101AF000232A04029DBF0C50854601462685029785
:101B0000FD57E310F5F89C40ADDF75476385E700AE
:101B100059476395E70023A0240181BF8357C40080
:101B200093E707042316F400F2406244D24442498A
:101B3000B24905618280136707042316E400EDB7FC
:101B400083A90501E38309F203A905008D8B23A076
:101B5000350133093941014791E3D84918C4E356A7
:101B600020F11C540C50CA864E8626858297634A03
:101B7000A0008357C4007D5593E707042316F400A3
:101B800065B7AA993309A940D9BF9C49B9CF0111BA
:101B900022CC06CE2A8411C51C4D81E72EC62122F7
:101BA000B24597F7FFFF9387E780639BF5004C40B2
:101BB0008397C50095C722856244F240056159B5F7
:101BC00097F7FFFF938707816394F5000C44CDB727
:101BD00097E7FFFF9387077CE39CF5FC4C44C9BF64
:101BE000F2406244014505618280014582804111D5
:101BF00022C406C62A842316B5002317C500232055
:101C0000050023220500232405002322050623289E
:101C10000500232A0500232C0500214681451305D4
:101C2000C505F52497070000938767695CD097077F
:101C300000009387C76B1CD4970700009387077039
:101C40005CD4970700009387C772B24000D01CD8BD
:101C500022444101828097050000938545F3B9A293
:101C6000411126C2130680069384F5FFB384C40293
:101C70004AC02E8922C406C693854407EFF0DF9C34
:101C80002A8419C92320050023222501310508C40F
:101C9000138684068145A52CB240228522449244B5
:101CA0000249410182801C4DBDE3411122C406C698
:101CB00097070000938767FA1CD523240504232681
:101CC00005042328050497F7FFFF83A7A7302A847C
:101CD0006314F50085471CCD22851D2848C0228548
:101CE000052808C422852D2048C448400146914556
:101CF000FD3D08440546A545DD3D48440946C94526
:101D0000FD358547B2401CCC22444101828082804F
:101D1000411126C297F4FFFF83A4C42B9C4C4AC0F8
:101D200006C622C42A8999E32685B53F9384840494
:101D30008044DC40FD1763D607009C40B1CF84404F
:101D4000C5BF0317C40031E7C17785072322040606
:101D50002320040023220400232404005CC423283D
:101D60000400232A0400232C040021468145130586
:101D7000C405712A232A0402232C04022324040408
:101D800023260404B24022852244924402494101A0
:101D900082801304840679BF91454A85D13588C075
:101DA0002A8451FDB1472320F900E9BF797122D47B
:101DB0004AD04ECE52CC5AC85EC606D626D256CA95
:101DC0002A892E8A130485048149054BFD5B04444E
:101DD000832A4400FD1A63D00A0200406DF8B25015
:101DE000225492540259624AD24A424BB24B4E8517
:101DF000F2494561828083D7C400637BFB008397EF
:101E0000E40063877701A6854A85029AB3E9A900B1
:101E100093848406C1B75971CAD02E898395E50091
:101E2000A2D4A6D286D63284B68463DC050083179A
:101E3000C90023A0040093F707088DE3930700402F
:101E400005A03000412BE34405FE3247BD67F98F02
:101E50007977BA9793B717009CC0CDB79307000462
:101E6000B6501CC0265496540659014565618280BF
:101E700083D7C500011122CC06CE26CA4AC8898B59
:101E80002E8489CF930774041CC01CC885475CC886
:101E9000F2406244D24442490561828074003000BD
:101EA0002A89953FA245AA844A85EFF0EFF901ED12
:101EB0008317C40013F7072061FFF19B93E7270006
:101EC0002316F400C1B797070000938707D923248E
:101ED000F9028357C40008C008C893E7070823160F
:101EE000F400A2475CC8B24789CF8315E4004A8555
:101EF000112B01C98357C400F19B93E717002316E8
:101F0000F4000355C400C98C2316940051B73D4317
:101F10002A876373C3029377F700BDEFADE593762D
:101F200006FF3D8ABA960CC34CC30CC74CC7410789
:101F3000E36BD7FE11E28280B306C3408A069702A4
:101F4000000096966780A6002307B700A306B70097
:101F50002306B700A305B7002305B700A304B70005
:101F60002304B700A303B7002303B700A302B700FD
:101F70002302B700A301B7002301B700A300B700F5
:101F80002300B700828093F5F50F93968500D58DD9
:101F900093960501D58D61B79396270097020000AF
:101FA00096968682E78086FA9680C1171D8F3E96A8
:101FB000E374C3F8A5B7828082801C46FD171CC657
:101FC00063DA0700184E63C5E700A9476394F5007C
:101FD0006FF0BF8A1C422E851387170018C223801A
:101FE000B7008280011122CC26CA4AC84EC652C40C
:101FF00006CE2A89AE893284B304D6007D5A631492
:102000009400014509A8834504004E864A8575372A
:102010000504E31645FFF2406244D2444249B24906
:10202000224A05618280357122CD26CB4AC94EC72E
:1020300006CF52C556C35AC1DEDEE2DCE6DAAA8913
:10204000AE843289368401C51C4D91E3A93997E7E6
:10205000FFFF93872736639BF40C83A4490083D743
:10206000C400A18BF5C79C48E5C793070002A304F1
:10207000F1029307000302D22305F10222C6930B5B
:10208000500297EAFFFF938AEA36054C294B4A84AF
:102090008347040099C36390770FB30C2441630D09
:1020A0002401E6864A86A6854E852D3FFD576304AA
:1020B000F51E9257E6973ED283470400638D071CB6
:1020C000FD571309140002C802CE3ECA02CCA30970
:1020D000010482D483450900154656856126C2470E
:1020E0001304190059E913F7070109C71307000280
:1020F000A309E10413F7870009C71307B002A30976
:10210000E104834609001307A0026380E608F24752
:102110004A848146254603470400930514001307AB
:1021200007FD6379E60AB5CA3ECE85A897E7FFFFAB
:102130009387472A6395F40083A489000DB797E736
:10214000FFFF93872725E39CF4F083A4C90001BF18
:10215000A6854E85EFF06FFE09D97D55FA406A4499
:10216000DA444A49BA492A4A9A4A0A4BF65B665CFB
:10217000D65C0D618280050421BF330555413315BE
:10218000AC00C98F3EC82289B1B7324793064700D9
:10219000184336C6634907023ACE03470400930743
:1021A000E002631FF704034714009307A002631BB8
:1021B000F702B2470904138747009C433AC663C13C
:1021C00007023ECA35A83307E04093E727003ACE1E
:1021D0003EC8E1B7B38767032E848546BA9725BF0B
:1021E000FD57C5B7050402CA814681472546034706
:1021F000040093051400130707FD6374E606F1F26B
:10220000834504000D4617E5FFFF1305251F992C94
:1022100011CD97E7FFFF9387671E1D8D930700047D
:10222000B397A700424505045D8D2AC88345040085
:10223000194617E5FFFF1305A51C13091400230415
:10224000B1020D242DC19307000095E74247B24724
:102250001377071009CF91073EC69257D2973ED207
:102260003DB5B38767032E848546BA9749B79D0766
:10227000E19BA107D5B77800970600009386C6D6E4
:1022800026860C084E8597000000E7000000FD57E9
:102290002A8AE314F5FC83D7C40093F70704E39E6E
:1022A00007EA125565BD7800970600009386C6D3ED
:1022B00026860C084E85D12CD9BF411122C42E840C
:1022C0008395E50006C6152B634905007C48AA974F
:1022D0007CC8B2402244410182808357C4007D778C
:1022E0007D17F98F2316F400EDB783D7C5000111D0
:1022F00022CC26CA4AC84EC606CE93F70710AA8437
:102300002E843289B68991C78395E50089460146B6
:102310000D228357C4007D777D17F98F8315E40064
:102320002316F4006244F240CE864A86B2494249FE
:102330002685D24405613DA8411122C42E8483958F
:10234000E50006C6FD20FD570357C400631BF500DA
:10235000FD77FD17F98F2316F400B24022444101A6
:1023600082808567D98F2316F40068C8FDB78395EE
:10237000E50015A8411122C42A842E85B28536862F
:1023800097E7BF5F23AC074406C6E523FD576318F4
:10239000F50097E7BF5F83A7674491C31CC0B240B5
:1023A000224441018280411122C42A842E8597E76C
:1023B000BF5F23A5074206C69529FD576318F500A0
:1023C00097E7BF5F83A7874191C31CC0B2402244F7
:1023D00041018280411122C42A842E85B28597E76B
:1023E000BF5F23AD073E06C69D21FD576318F5006C
:1023F00097E7BF5F83A7873E91C31CC0B2402244CA
:1024000041018280411122C42A842E8597E7BF5F53
:1024100023A6073C06C6B929FD576318F50097E7C0
:10242000BF5F83A7A73B91C31CC0B24022444101B8
:102430008280411122C42A842E85B285368697E790
:10244000BF5F23AD073806C6B121FD576318F500FD
:1024500097E7BF5F83A7873891C31CC0B24022446F
:102460004101828093F5F50F2A966314C50001455A
:10247000828083470500E38DB7FE0505FDB77971BE
:1024800052CC9C493A8A984522D426D24ECE56CA7E
:1024900006D64AD05AC85EC6AA892E84B284B68AA5
:1024A00063D3E700BA879CC00347340419C3850788
:1024B0009CC01C4093F7070281C79C4089079CC0C1
:1024C0000329040013796900631A0900130B9401AE
:1024D000FD5B5C449840998F634CF9048347340456
:1024E000B336F0001C4093F70702A5EB1306340443
:1024F000D6854E85029AFD576303F5041C401146AC
:102500009840998B544481446397C700B384E64054
:1025100063D3040081441C4418486354F700998F26
:10252000BE94014969047D5B63982405014509A8AF
:1025300085465A86D6854E85029A631E75017D555D
:10254000B250225492540259F249624AD24A424B42
:10255000B24B456182800509ADBF3307D400130635
:102560000003A301C7040347540493871600A297EE
:102570008906A381E7049DBF85462286D6854E85C0
:10258000029AE30E65FB050945B7797122D426D27C
:102590004AD04ECE06D652CC56CA5AC803C8850178
:1025A00093078007AA842E843289B68963EE0701D7
:1025B000930720069386350463ED07016305081C25
:1025C00093078005630AF812930A24042301040583
:1025D00015A89307D8F993F7F70F5546E366F6FE6B
:1025E00017E6FFFF1306C6E48A07B2979C43B2972B
:1025F00082871C43938A2504938647009C4314C317
:102600002381F50485475DA29C41084313F6070822
:10261000930545000DC21C410CC363D80700130786
:10262000D002B307F040A301E40417E6FFFF13064E
:10263000A6DD2948A1A013F607041C410CC371DED6
:10264000C207C187D9BF90411C4313750608938503
:10265000470001C50CC39C4339A0137606040CC384
:102660007DDA83D707001307F00617E6FFFF13068E
:10267000A6D96304E80E2948A3010404584018C4ED
:10268000634507000C40ED990CC099E3B68A19CF59
:10269000B68A33F70703FD1A3297034707002380F2
:1026A000EA003E87B3D70703E37507FFA147631E20
:1026B000F8001C40858B91CB58401C4863C7E7004D
:1026C00093070003A38FFAFEFD1AB386564114C880
:1026D0004E87CA867000A285268555337D5A631BB6
:1026E000450D7D55B250225492540259F249624A26
:1026F000D24A424B45618280A382050517E6FFFF5F
:10270000130686D00C40084313F805081C41110538
:10271000630D080208C313F7150001C793E505020E
:102720000CC04148B1FB18401377F7FD18C0A9B79A
:102730009C4193E707029CC193078007A302F4041E
:1027400017E6FFFF130686CD75BF13F8050408C30F
:10275000E30308FCC207C1837DBF214831BF90411C
:102760001C43CC491378060813854700630608000C
:1027700008C39C438CC301A808C3137606049C437A
:1027800075DA2390B70023280400B68A91B71C435A
:10279000D04181459386470014C383AA070056851C
:1027A000D13101C53305554148C05C401CC8A30167
:1027B000040439BF14485686CA8526858299E302E7
:1027C00045F31C40898B8DE7B2474844E35CF5F044
:1027D0003E8509BF85465686CA8526858299E302CD
:1027E00065F1050A5C443247998FE345FAFEE9BF7B
:1027F000014A930A94017D5BF5B7411122C42A84F2
:102800002E85B285368697E7BF5F23A907FC06C6EB
:102810007D20FD576318F50097E7BF5F83A707FC8E
:1028200091C31CC0B240224441018280011106CEF6
:1028300022CC00102326A4FE4D2A2A879307800568
:102840001CC3FD573E85F240624405618280011140
:1028500006CE22CC00102326A4FE2324B4FE71222F
:102860002A87930780FA1CC3FD573E85F2406244D5
:1028700005618280011122CE00102326A4FE832749
:10288000C4FEFD1793B7170093F7F70F3E85724408
:1028900005618280011106CE22CC00102326A4FE01
:1028A0002324B4FE2322C4FE89222A8793078005AD
:1028B0001CC3FD573E85F2406244056182800111D0
:1028C00006CE22CC00102326A4FE2324B4FE23220D
:1028D000C4FE212A2A87930780051CC3FD573E8525
:1028E000F240624405618280797106D622D40018D4
:1028F000232EA4FCB707008083A7477A2326F4FE83
:1029000013870133B7270080938707AD6314F7005F
:10291000FD5799A8B707008003A7477A8327C4FD0E
:102920003E97B7270080938707AD6376F702B70716
:10293000008003A7477A8327C4FD3E97B70700802E
:1029400023A2E77A8325C4FD0325C4FEEFD0EFF36D
:102950008327C4FE11A8B70700803727008013071C
:1029600007AD23A2E77AFD573E85B2502254456158
:102970008280797106D622D40018232EA4FC232C41
:10298000B4FC232AC4FC0327C4FD85476309F70070
:10299000A9282A87930780051CC3FD572DA88327E4
:1029A00084FD2324F4FE232604FE39A8032784FE95
:1029B0008327C4FEBA9783C707003E85892E8327E5
:1029C000C4FE85072326F4FE0327C4FE832744FDA7
:1029D000E36EF7FC81473E85B25022544561828008
:1029E000AA85814601460145E9A017E5BF5F032599
:1029F00065DB8280411122C406C6970700009387D9
:102A000047132A8499C381451D2217E5FFFF03253B
:102A1000655C1C5591C382972285EF40D0204111FF
:102A200022C426C217E4FFFF1304C48C97E4FFFFFF
:102A30009384448C058C06C6098411E4B240224478
:102A40009244410182807D1493172400A6979C43F1
:102A50008297E5B7411122C426C217E4FFFF130491
:102A6000648897E4FFFF9384E487818C4AC006C69C
:102A7000898401496315990217E4FFFF13048486D2
:102A800097E4FFFF93840486818C89840149631D48
:102A90009900B240224492440249410182801C4084
:102AA000050911048297F9B71C40050911048297A2
:102AB000F9BFAA8817E5BF5F130585D21C4191EFC6
:102AC00017E7BF5F130787D218C113050000BA8745
:102AD00009C51C412324F708BA87D8437D487D5592
:102AE0006346E804638D080203A8870863000804AE
:102AF00013152700429510C103230810054633160D
:102B0000E6003363C300232068102320D5088946DC
:102B10006397D80083264810558E2322C810930649
:102B200017000A07D4C3BA978CC701458280797110
:102B300056CA5AC85EC662C406D622D426D24AD025
:102B40004ECE52CC66C22A8BAE8A97EBBF5F938B78
:102B50002BC9054C83A40B0081CCC04083A98408F9
:102B60001309F4FF0A04338A89002694635F09007D
:102B7000B250225492540259F249624AD24A424B0C
:102B8000B24B224C924C45618280638C0A00639662
:102B900009007D19711A7114D1BF8327CA07E39AFE
:102BA00057FFD8405C407D176318270323A22401F8
:102BB000EDD383AC44006388090083A60910331762
:102BC0002C01F98E89EE8297D84083A70B00E3137E
:102BD00097F9E380F4FCBDBF23220400D1BF83A694
:102BE00049108325CAFF758F01E75A858297E9BF8F
:102BF0002E858297D1BF011106CE22CC0010B707D7
:102C0000008083A7077EA9EFB7070080054723A0B0
:102C1000E77EB70740201387C72EB707402093876A
:102C2000072E63F1E704B70740209387072E23267A
:102C3000F4FE31A88327C4FE9C432324F4FE83279B
:102C400084FE82978327C4FE91072326F4FE032780
:102C5000C4FEB70740209387C72EE31DF7FC21A0D1
:102C6000010011A00100F24062440561828001115F
:102C700006CE22CC0010B707008083A7477EA9EFBD
:102C8000B7070080054723A2E77EB70740201387D8
:102C9000072FB70740209387072F63F1E704B70793
:102CA00040209387072F2326F4FE31A88327C4FEF4
:102CB0009C432324F4FE832784FE82978327C4FE4B
:102CC00091072326F4FE0327C4FEB707402093870D
:102CD000072FE31DF7FC21A0010011A00100F24025
:102CE000624405618280411106C622C40008213772
:102CF0000100B240224441018280411106C622C433
:102D00000008B5370100B240224441018280011120
:102D100006CE22CC00102326A4FE8325C4FEB707CE
:102D20000080138587752D28AA873E85F24062446E
:102D300005618280011106CE22CC00102326A4FE5C
:102D40002324B4FE8327C4FE9C439C43832584FE36
:102D50000325C4FE82970100F2406244056182802F
:102D6000011106CE22CC00102326A4FE2324B4FE9B
:102D70008327C4FE9C43DC43832584FE0325C4FED5
:102D80008297AA873E85F2406244056182800111E4
:102D900006CE22CC00102326A4FE2324B4FE8327D3
:102DA000C4FE9C43DC4B832584FE0325C4FE82972E
:102DB000AA873E85F240624405618280011122CEDD
:102DC00000102326A4FE0327C4FEB70700809387C4
:102DD000C77A6315F700B707000211A081473E8547
:102DE000724405618280011122CE00102326A4FEC8
:102DF0000327C4FEB70700809387C77A6314F700E0
:102E0000894711A081473E85724405618280011186
:102E100022CE00102326A4FE2324B4FE832784FEA2
:102E200091E7B70700809387870821A8032784FECE
:102E300085476317F700B70700809387870811A0BD
:102E400081473E85724405618280011122CE0010C7
:102E50002326A4FE2324B4FE832784FE99E38D4712
:102E600009A8032784FE85476314F7009D4711A036
:102E700081473E857244056182805D7186C6A2C429
:102E8000CAC2CEC052DE56DC5ADA5ED862D666D4EA
:102E90008008232EA4FA8327C4FB3E85053723260A
:102EA000A4FC0327C4FCB167F117BA979C43232401
:102EB000F4FC0327C4FCB167E117BA979C432322B3
:102EC000F4FC0327C4FCB167F117BA979C430327AE
:102ED00084FCE318F7FC832784FC3E8C814C931917
:102EE0000C000149832744FC3E8A814A336B490127
:102EF000B3EB59015A87DE873A85BE85B640264432
:102F000016498649725AE25A525BC25B325CA25C35
:102F100061618280797106D622D44AD24ED00018DF
:102F2000232EA4FC232CB4FC2328C4FC232AD4FC89
:102F30008327C4FD2326F4FE8327C4FE3E85BD3DC2
:102F40002324A4FE832784FD8E073E87832784FEE7
:102F50003E9791679107BA973E87FD571CC3832719
:102F600084FD8E073E87832784FE3E979167BA973C
:102F70003E87832704FD1CC3832744FD13D9070024
:102F80008149832784FD8E073E87832784FE3E97F1
:102F900091679107BA974A8798C381473E85B25097
:102FA00022541259825945618280011106CE22CCE9
:102FB0000010232604FEF32740F12326F4FE832786
:102FC000C4FE3E85EF40C02A2324A4FE032584FED0
:102FD000EF40A027AA873E85F240624405618280C7
:102FE000397106DE22DC80002326A4FC0325C4FC04
:102FF000DD3B2324A4FE8327C4FC2322F4FE832785
:1030000044FEDC43A9EF232604FE81A08325C4FEF1
:103010000325C4FCED3B2320A4FE8325C4FE032529
:10302000C4FC2535232EA4FC832704FE9C43DC4FDF
:103030008326C4FC01468325C4FD032504FE829734
:103040008327C4FE85072326F4FE0327C4FE8327B7
:1030500084FEE34DF7FA832744FE0547D8C30100F9
:10306000F250625421618280397106DE22DC8000D8
:103070002326A4FC2324B4FC2322C4FC2320D4FC58
:10308000FD572326F4FEEF1040452320A4FE232401
:1030900004FE213F232EA4FC0325C4FCA933232CCA
:1030A000A4FC032704FE85476308F700832704FE7A
:1030B00081C78327C4FE49A0232204FE91A0832553
:1030C00044FE0325C4FC5133232AA4FC832544FE7B
:1030D0000325C4FC2D3B2324A4FE0327C4FD832722
:1030E00084FE6318F700032784FC832744FD6300F4
:1030F000F702232404FE832744FE85072322F4FEDF
:10310000032744FE832784FDE34BF7FA11A0010057
:10311000832784FE85C3832784FE9C43DC4F83265C
:1031200004FC032644FC832584FC032584FE82974B
:103130002326A4FE8327C4FE3E85F25062542161FB
:103140008280797122D60018232EA4FC232CB4FC93
:10315000232AC4FC2328D4FCFD572326F4FE83270E
:10316000C4FE3E85325445618280011106CE22CCD8
:1031700000102326A4FEEF104036AA873E85F240B9
:10318000624405618280797106D622D40018232E0C
:10319000A4FC232CB4FCFD572326F4FE393523244C
:1031A000A4FE832784FE95C3032784FD854763E03F
:1031B000E702832784FE9C43DC43832584FD0325AB
:1031C00084FE82972326A4FE21A0010011A0010005
:1031D0008327C4FE3E85B2502254456182803971F6
:1031E00006DE22DC80002326A4FC2324B4FCFD5749
:1031F0002326F4FE832784FCC9C7232404FE7533E9
:103200002320A4FE0325C4FCF93E232EA4FC232284
:1032100004FE91A0832544FE0325C4FC3D31232CEC
:10322000A4FC832544FE0325C4FCD5362324A4FE38
:10323000032704FE832784FE6318F700032784FC1A
:10324000832784FD6300F702232404FE832744FEC2
:1032500085072322F4FE032744FE8327C4FDE34BA6
:10326000F7FA11A00100832784FE81CF832784FE13
:103270009C43DC53832584FC032584FE829723260C
:10328000A4FE8327C4FE3E85F250625421618280F1
:10329000397106DE22DC80002326A4FC2324B4FC42
:1032A000FD572326F4FE832784FCC1CB232404FE90
:1032B000ED392320A4FE0325C4FCEFF0DFB2232E5A
:1032C000A4FC232204FEA1A0832544FE0325C4FC04
:1032D000EFF0BFB7232CA4FC832544FE0325C4FCD8
:1032E000EFF0FFB22324A4FE032704FE832784FE0D
:1032F0006318F700032784FC832784FD6300F7022B
:10330000232404FE832744FE85072322F4FE03279B
:1033100044FE8327C4FDE349F7FA11A00100832787
:1033200084FE81CF832784FE9C439C57832584FCA5
:10333000032584FE82972326A4FE8327C4FE3E85B0
:10334000F250625421618280797106D622D400182D
:10335000232EA4FC232CB4FC232AC4FCFD572326D3
:10336000F4FE8327C4FD2324F4FE0325C4FDEFF0FF
:10337000FFA42322A4FE032784FD91476301F70CD9
:10338000032784FD914763C1E70E032784FD8D4722
:103390006306F706032784FD8D4763C7E70C032701
:1033A00084FD85476308F700032784FD894763038D
:1033B000F7025DA8832744FDD5CB032584FEEFF0FB
:1033C000DFAB2A87AE87832644FD98C2DCC2232662
:1033D00004FE69A8832744FDC1CF832744FD9C4395
:1033E0002320F4FE832704FE8A073E87832744FEBA
:1033F000BA9723A00700232604FE9DA8832744FD37
:10340000B5CB832744FD9C432320F4FE832704FE91
:103410008A073E87832744FEBA973E8785471CC3A9
:103420000F008004832704FE8A073E87832744FE1B
:10343000BA979C432326F4FE232604FE25A82326C0
:1034400004FE832744FD8DCB832744FD9C4323202A
:10345000F4FE832704FE8A073E87832744FEBA973B
:103460009C432326F4FE09A8010001A8010031A015
:10347000010021A0010011A001008327C4FE3E85A8
:10348000B250225445618280797106D622D4001848
:10349000232EA4FC232CB4FCEF307060AA872326D3
:1034A000F4FE9307C4FE3E8689450325C4FD693DAD
:1034B000AA873E85B250225445618280797106D632
:1034C00022D40018232EA4FC232CB4FCEF30305D52
:1034D000AA872326F4FE9307C4FE3E868D45032566
:1034E000C4FD9D35AA873E85B25022544561828035
:1034F000011122CE00102326A4FE0327C4FE9387C9
:1035000041816314F700814711A0FD573E85724445
:1035100005618280011122CE00102326A4FE03271C
:10352000C4FE938741816317F700B7470F00938765
:10353000072411A081473E857244056182800111F4
:1035400022CE00102326A4FE0327C4FE93874181C8
:103550006317F700B70700809387870811A081479A
:103560003E85724405618280011122CE001023261F
:10357000A4FE0327C4FE938741816314F7008147AB
:1035800011A081473E85724405618280011122CEDF
:1035900000102326A4FE8327C4FE634CF000B70767
:1035A00000800327C4FE0A079387877ABA979C4353
:1035B00011A081473E85724405618280011122CEAF
:1035C0000010F32740F12326F4FE8327C4FE3E8536
:1035D000724405618280011122CE0010A147F3A739
:1035E00007302326F4FE0100724405618280011138
:1035F00022CE0010A147F3B707302326F4FE0100C6
:10360000724405618280011122CE0010A147F3A708
:1036100047302326F4FE01007244056182800111C7
:1036200022CE0010A147F3B747302326F4FE010055
:10363000724405618280011122CE001093070008B8
:10364000F3A747302326F4FE01007244056182800F
:10365000011122CE001093070008F3B7473023264C
:10366000F4FE0100724405618280011122CE001037
:10367000856793870780F3A747302326F4FE010070
:10368000724405618280011122CE00108567938704
:103690000780F3B747302326F4FE0100724405612A
:1036A0008280797122D60018232EA4FC8327C4FDC2
:1036B0000547B317F7002326F4FE8327C4FEF3A7BC
:1036C00047302324F4FE0100325445618280797131
:1036D00022D60018232EA4FC8327C4FD0547B31768
:1036E000F7002326F4FE8327C4FEF3B747302324D4
:1036F000F4FE0100325445618280011106CE22CCD5
:1037000000102326A4FE2324B4FE13054006EF3048
:10371000D03C011106CE22CC00102326A4FE232487
:10372000B4FE1305800CEF30503B5D7186C696C425
:103730009AC29EC022DE2ADC2EDA32D836D63AD49D
:103740003ED242D046CE72CC76CA7AC87EC68008B7
:103750001305C012EF3070381D7186CE96CC9ACA10
:103760009EC8A2C6AAC4AEC2B2C036DE3ADC3EDAF9
:1037700042D846D672D476D27AD07ECE80103D3DE5
:103780002A87B70700800A079387877ABA979C43EE
:103790002326F4FA8327C4FA85C70325C4FA4533E0
:1037A0002324A4FA832784FA83A7070E2322F4FA9A
:1037B000832784FA83A7870D832544FA0D458297D2
:1037C0000100F640E6425643C64336442645964538
:1037D0000646F2566257D2574258B258225E925E5F
:1037E000025FF24F256173002030797106D622D432
:1037F0000018232EA4FC232CB4FCC9332A87B70756
:1038000000800A079387877ABA979C432326F4FEA1
:10381000F32720342324F4FE8327C4FE95C7032511
:10382000C4FE313B2322A4FE832784FE93F7F73F97
:10383000032744FE9387870E8A07BA979C43832504
:10384000C4FD0325C4FE82970100B2502254456195
:1038500082801D7186CE96CC9ACA9EC8A2C6AAC482
:10386000AEC2B2C036DE3ADC3EDA42D846D672D4B8
:1038700076D27AD07ECE801091332A87B707008027
:103880000A079387877ABA979C432326F4FA8327FB
:10389000C4FA85C70325C4FA5D312324A4FA83271B
:1038A00084FA83A707142322F4FA832784FA83A7D0
:1038B0008713832544FA1D4582970100F640E642AE
:1038C0005643C6433644264596450646F256625749
:1038D000D2574258B258225E925E025FF24F256183
:1038E00073002030011122CE00102326A4FE2324D1
:1038F000B4FE0100724405618280797106D622D43B
:103900000018232EA4FC232CB4FC4D39AA873E8535
:10391000B5392326A4FE0325C4FEEF10C0282320BA
:10392000A4FE2322B4FE032704FE832744FE294578
:1039300081453306A70032883338E800B386B700E4
:10394000B307D800BE863287B687BA853E86032580
:10395000C4FEEF10A02B0100B250225445618280BA
:103960000000000000000000000000000000000057
:103970000000000000000000000000000000000047
:10398000197186DE96DC9ADA9ED8A2D6AAD4AED277
:10399000B2D0B6CEBACCBECAC2C8C6C6F2C4F6C28F
:1039A000FAC07EDE0001EFF07FC12A87B7070080F2
:1039B0000A079387877ABA979C432326F4FAF3275A
:1039C00020342324F4FAF32710342322F4FAF327C3
:1039D00030342320F4FAF3275030232EF4F88327D1
:1039E000C4FAFDCB0325C4FAEFF07FB5232CA4F86D
:1039F000832784FA93F7F73F232AF4F8832784FA7E
:103A000063DE070A032744F9930700086312F702ED
:103A1000832784F983A787392326F4F8832784F939
:103A200083A707398325C4F8032544F982976DA03D
:103A3000032744F9AD4763D7E7008327C4F993F719
:103A4000F7039DEF832684F9032744F9BA87860795
:103A5000BA978E07B69783A787092326F4F883269B
:103A600084F9032744F9BA878607BA978E07B69771
:103A700083A707098325C4F8032544F98297A9A8D9
:103A80008327C4F913F7F70389476317F704F3276C
:103A900070302328F4F8832784F983A7C70D2326E1
:103AA000F4F8832704F99C432324F4F8832784F84B
:103AB0008325C4F8032544F9829739A8032784F99C
:103AC000832744F99387870E8A07BA979C438325F7
:103AD00044F90325C4FA8297F650E6525653C6536A
:103AE0003654265596550656F6466647D6474648F6
:103AF000B648264E964E064FF25F0961730020309D
:103B000000000000000000000000000000000000B5
:103B100000000000000000000000000000000000A5
:103B20000000000000000000000000000000000095
:103B30000000000000000000000000000000000085
:103B40000000000000000000000000000000000075
:103B50000000000000000000000000000000000065
:103B60000000000000000000000000000000000055
:103B7000000000000000000000001D7186CE96CC01
:103B80009ACA9EC8A2C6AAC4AEC2B2C036DE3ADC89
:103B90003EDA42D846D672D476D27AD07ECE801023
:103BA000EFF0DFA12A87B70700800A079387877A9B
:103BB000BA979C432326F4FA8327C4FA8DC70325BA
:103BC000C4FAEFF0DF972324A4FA832784FA83A7AB
:103BD00087212322F4FA832784FA83A707218325E8
:103BE00044FA414582970100F640E6425643C643F7
:103BF0003644264596450646F2566257D2574258F5
:103C0000B258225E925E025FF24F2561730020304F
:103C10001D7186CE96CC9ACA9EC8A2C6AAC4AEC250
:103C2000B2C036DE3ADC3EDA42D846D672D476D21C
:103C30007AD07ECE8010EFF07F982A87B707008079
:103C40000A079387877ABA979C432326F4FA832737
:103C5000C4FA8DC70325C4FAEFF07F8E2324A4FA9B
:103C6000832784FA83A707232322F4FA832784FA7D
:103C700083A78722832544FA454582970100F640B1
:103C8000E6425643C6433644264596450646F25616
:103C90006257D2574258B258225E925E025FF24F8C
:103CA0002561730020301D7186CE96CC9ACA9EC8BD
:103CB000A2C6AAC4AEC2B2C036DE3ADC3EDA42D8F0
:103CC00046D672D476D27AD07ECE8010EFF01F8F97
:103CD0002A87B70700800A079387877ABA979C4399
:103CE0002326F4FA8327C4FA8DC70325C4FAEFF01C
:103CF0001F852324A4FA832784FA83A787242322F9
:103D0000F4FA832784FA83A70724832544FA4945D4
:103D100082970100F640E6425643C64336442645A4
:103D200096450646F2566257D2574258B258225E1E
:103D3000925E025FF24F2561730020301D7186CEC6
:103D400096CC9ACA9EC8A2C6AAC4AEC2B2C036DE7B
:103D50003ADC3EDA42D846D672D476D27AD07ECEDB
:103D60008010EFF0BF852A87B70700800A07938786
:103D7000877ABA979C432326F4FA8327C4FA8DC71F
:103D80000325C4FAEFF0AFFB2324A4FA832784FAB7
:103D900083A707262322F4FA832784FA83A787259B
:103DA000832544FA4D4582970100F640E64256438A
:103DB000C6433644264596450646F2566257D257C4
:103DC0004258B258225E925E025FF24F2561730044
:103DD00020301D7186CE96CC9ACA9EC8A2C6AAC4AF
:103DE000AEC2B2C036DE3ADC3EDA42D846D672D433
:103DF00076D27AD07ECE8010EFF04FFC2A87B707BC
:103E000000800A079387877ABA979C432326F4FA9F
:103E10008327C4FA8DC70325C4FAEFF04FF2232499
:103E2000A4FA832784FA83A787272322F4FA832717
:103E300084FA83A70727832544FA51458297010016
:103E4000F640E6425643C643364426459645064666
:103E5000F2566257D2574258B258225E925E025FC3
:103E6000F24F2561730020301D7186CE96CC9ACA20
:103E70009EC8A2C6AAC4AEC2B2C036DE3ADC3EDAE2
:103E800042D846D672D476D27AD07ECE8010EFF069
:103E9000EFF22A87B70700800A079387877ABA97D5
:103EA0009C432326F4FA8327C4FA8DC70325C4FA5A
:103EB000EFF0EFE82324A4FA832784FA83A70729E5
:103EC0002322F4FA832784FA83A78728832544FAD8
:103ED000554582970100F640E6425643C6433644B4
:103EE000264596450646F2566257D2574258B25872
:103EF000225E925E025FF24F2561730020301D71D9
:103F000086CE96CC9ACA9EC8A2C6AAC4AEC2B2C079
:103F100036DE3ADC3EDA42D846D672D476D27AD051
:103F20007ECE8010EFF08FE92A87B70700800A075E
:103F30009387877ABA979C432326F4FA8327C4FA97
:103F40008DC70325C4FAEFF08FDF2324A4FA83275B
:103F500084FA83A7872A2322F4FA832784FA83A783
:103F6000072A832544FA594582970100F640E64224
:103F70005643C6433644264596450646F256625792
:103F8000D2574258B258225E925E025FF24F2561CC
:103F9000730020301D7186CE96CC9ACA9EC8A2C6E8
:103FA000AAC4AEC2B2C036DE3ADC3EDA42D846D649
:103FB00072D476D27AD07ECE8010EFF02FE02A87AE
:103FC000B70700800A079387877ABA979C4323260E
:103FD000F4FA8327C4FA8DC70325C4FAEFF02FD66D
:103FE0002324A4FA832784FA83A7072C2322F4FA34
:103FF000832784FA83A7872B832544FA5D4582971C
:104000000100F640E6425643C643364426459645EF
:104010000646F2566257D2574258B258225E925E16
:10402000025FF24F2561730020301D7186CE96CC61
:104030009ACA9EC8A2C6AAC4AEC2B2C036DE3ADCD4
:104040003EDA42D846D672D476D27AD07ECE80106E
:10405000EFF0CFD62A87B70700800A079387877AC1
:10406000BA979C432326F4FA8327C4FA8DC7032505
:10407000C4FAEFF0CFCC2324A4FA832784FA83A7D1
:10408000872D2322F4FA832784FA83A7072D83251B
:1040900044FA614582970100F640E6425643C64322
:1040A0003644264596450646F2566257D257425840
:1040B000B258225E925E025FF24F2561730020309B
:1040C0001D7186CE96CC9ACA9EC8A2C6AAC4AEC29C
:1040D000B2C036DE3ADC3EDA42D846D672D476D268
:1040E0007AD07ECE8010EFF06FCD2A87B7070080A0
:1040F0000A079387877ABA979C432326F4FA832783
:10410000C4FA8DC70325C4FAEFF06FC32324A4FAC1
:10411000832784FA83A7072F2322F4FA832784FABC
:1041200083A7872E832544FA654582970100F640D0
:10413000E6425643C6433644264596450646F25661
:104140006257D2574258B258225E925E025FF24FD7
:104150002561730020301D7186CE96CC9ACA9EC808
:10416000A2C6AAC4AEC2B2C036DE3ADC3EDA42D83B
:1041700046D672D476D27AD07ECE8010EFF00FC4BD
:104180002A87B70700800A079387877ABA979C43E4
:104190002326F4FA8327C4FA8DC70325C4FAEFF067
:1041A0000FBA2324A4FA832784FA83A78730232213
:1041B000F4FA832784FA83A70730832544FA6945F4
:1041C00082970100F640E6425643C64336442645F0
:1041D00096450646F2566257D2574258B258225E6A
:1041E000925E025FF24F2561730020301D7186CE12
:1041F00096CC9ACA9EC8A2C6AAC4AEC2B2C036DEC7
:104200003ADC3EDA42D846D672D476D27AD07ECE26
:104210008010EFF0AFBA2A87B70700800A079387AC
:10422000877ABA979C432326F4FA8327C4FA8DC76A
:104230000325C4FAEFF0AFB02324A4FA832784FA4D
:1042400083A707322322F4FA832784FA83A78731CE
:10425000832544FA6D4582970100F640E6425643B5
:10426000C6433644264596450646F2566257D2570F
:104270004258B258225E925E025FF24F256173008F
:1042800020301D7186CE96CC9ACA9EC8A2C6AAC4FA
:10429000AEC2B2C036DE3ADC3EDA42D846D672D47E
:1042A00076D27AD07ECE8010EFF04FB12A87B70752
:1042B00000800A079387877ABA979C432326F4FAEB
:1042C0008327C4FA8DC70325C4FAEFF04FA7232430
:1042D000A4FA832784FA83A787332322F4FA832757
:1042E00084FA83A70733832544FA71458297010036
:1042F000F640E6425643C6433644264596450646B2
:10430000F2566257D2574258B258225E925E025F0E
:10431000F24F2561730020301D7186CE96CC9ACA6B
:104320009EC8A2C6AAC4AEC2B2C036DE3ADC3EDA2D
:1043300042D846D672D476D27AD07ECE8010EFF0B4
:10434000EFA72A87B70700800A079387877ABA976B
:104350009C432326F4FA8327C4FA8DC70325C4FAA5
:10436000EFF0EF9D2324A4FA832784FA83A707356F
:104370002322F4FA832784FA83A78734832544FA17
:10438000754582970100F640E6425643C6433644DF
:10439000264596450646F2566257D2574258B258BD
:1043A000225E925E025FF24F2561730020301D7124
:1043B00086CE96CC9ACA9EC8A2C6AAC4AEC2B2C0C5
:1043C00036DE3ADC3EDA42D846D672D476D27AD09D
:1043D0007ECE8010EFF08F9E2A87B70700800A07F5
:1043E0009387877ABA979C432326F4FA8327C4FAE3
:1043F0008DC70325C4FAEFF08F942324A4FA8327F2
:1044000084FA83A787362322F4FA832784FA83A7C2
:104410000736832544FA794582970100F640E64243
:104420005643C6433644264596450646F2566257DD
:10443000D2574258B258225E925E025FF24F256117
:10444000730020301D7186CE96CC9ACA9EC8A2C633
:10445000AAC4AEC2B2C036DE3ADC3EDA42D846D694
:1044600072D476D27AD07ECE8010EFF02F952A8744
:10447000B70700800A079387877ABA979C43232659
:10448000F4FA8327C4FA8DC70325C4FAEFF02F8B03
:104490002324A4FA832784FA83A707382322F4FA73
:1044A000832784FA83A78737832544FA7D4582973B
:1044B0000100F640E6425643C6433644264596453B
:1044C0000646F2566257D2574258B258225E925E62
:1044D000025FF24F256173002030011122CE0010DF
:1044E000F32750302326F4FE8327C4FE93F7F70307
:1044F0002326F4FE0327C4FE8D476303F702032738
:10450000C4FE8D4763E2E7020327C4FE8547630BC1
:10451000F7000327C4FE89476318F7008D4731A0D1
:10452000914721A0854711A081473E8572440561CE
:104530008280797122D60018232EA4FC232CB4FC8F
:10454000F32750302326F4FE8327C4FE93F707FC9D
:104550002326F4FE832784FD2324F4FE0327C4FDD1
:1045600091476305F7040327C4FD914763E8E70615
:104570000327C4FD8D4763E3E7060327C4FD89478E
:10458000637BF7008327C4FDA1C70327C4FD8547CC
:104590006309F702A1A0832784FE739077308327F5
:1045A000C4FE93E72700739057300DA8832784FE3D
:1045B000739077308327C4FE93E7370073905730AA
:1045C00031A8832784FE93E717007390573039A0F2
:1045D000832784FEF19B7390573001000100325411
:1045E00045618280011122CE00102326A4FE0327FC
:1045F000C4FEFD4763C6E7020327C4FE8D47634937
:10460000F7028327C4FE05473317F700C577938762
:104610008788F98FB337F00093F7F70F81EB09A87C
:104620000327C4FE930700086314F700854719A009
:10463000010081473E85724405618280797106D60A
:1046400022D40018232EA4FC232CB4FC232AC4FC5F
:10465000232604FE8327C4FD99E3FD5749A80327B9
:1046600084FDFD4763E0E708832784FD1397270057
:10467000B70740209387C74FBA979C438287832709
:1046800044FD81C7EFE03FF58DA0EFE05FF6B1A8F4
:10469000832744FD81C7EFE01FF781A8EFE03FF8D3
:1046A000A9A0832744FD81C7EFE0FFF83DA8EFE014
:1046B0003FFA25A8832744FD81C7EFE01FFB35A003
:1046C000EFE07FFC1DA0832744FD99C7832784FD6D
:1046D0003E85EFE01FFD11A8832784FD3E85EFE0B6
:1046E0001FFF21A0FD572326F4FE8327C4FE3E852D
:1046F000B250225445618280797122D60018232E4F
:10470000A4FC232CB4FC232AC4FC8327C4FD232649
:10471000F4FE032784FDAD4763C2E702832744FD0F
:1047200091CF0327C4FE832784FD9387870E8A07D2
:10473000BA97032744FD98C3814711A0FD573E85D2
:10474000325445618280797106D622D40018232E16
:10475000A4FC8327C4FD2322F4FE832744FEDC430C
:10476000E1E3232604FEB9A0832644FE0327C4FE0A
:10477000BA878607BA978E07B69723A807088326B5
:1047800044FE0327C4FEBA878607BA978E07B697FA
:1047900023AA0708832644FE0327C4FEBA87860798
:1047A000BA978E07B69723AC07088327C4FE850700
:1047B0002326F4FE0327C4FEFD47E3D7E7FA2324AC
:1047C00004FE1DA0032744FE832784FE9387870EE3
:1047D0008A07BA97373740201307A76F98C38327F4
:1047E00084FE85072324F4FE032784FEAD47E3DB24
:1047F000E7FCF32750302320F4FEB70740209387CF
:104800004713032704FE6319F700B7474020938539
:1048100007980145EFF0FFD1832744FE0547D8C331
:104820000100B250225445618280797106D622D4AB
:104830000018232EA4FC232CB4FC232AC4FC232818
:10484000D4FC232604FE8327C4FD2324F4FE032581
:1048500084FD493BAA8799E3D55765A2032784FDC8
:10486000930700086318F700EFF03FC7AA8799C3C2
:10487000CD5741AA832744FDB9CF032784FD930771
:104880000008631FF700832784FE032744FD23A845
:10489000E738832784FE032704FD23ACE73885A28D
:1048A000832684FE032784FDBA878607BA978E077E
:1048B000B697032744FD23A8E708832684FE032731
:1048C00084FDBA878607BA978E07B697032704FD3B
:1048D00023ACE7082DA2032784FD9307000863019A
:1048E000F70C032784FD9307000863C7E71003272D
:1048F00084FDFD4763C2E710032784FDC147635071
:10490000F70C032784FDAD47630BF70A032784FDEB
:10491000AD4763C3E70E032784FD8D476308F700A7
:10492000032784FD9D476300F704F9A0832684FED6
:10493000032784FDBA878607BA978E07B69737375D
:1049400040201307A77E23A8E708832684FE0327B9
:1049500084FDBA878607BA978E07B697032704FDAA
:1049600023AAE70869A8832684FE032784FDBA8763
:104970008607BA978E07B697374740201307A78F49
:1049800023A8E708832684FE032784FDBA878607C9
:10499000BA978E07B697032704FD23AAE70885A0D8
:1049A000832784FE374740201307478E23A8E73824
:1049B000832784FE032704FD23ACE73889A08326E0
:1049C00084FE032784FDBA878607BA978E07B697B9
:1049D000373740201307277123A8E708832684FE72
:1049E000032784FDBA878607BA978E07B6970327F1
:1049F00004FD23AAE70821A0D1572326F4FE83272C
:104A0000C4FE3E85B250225445618280011106CE1B
:104A100022CC00102326A4FE2324B4FE832784FE88
:104A20000546BE850325C4FEEFF05FC1AA873E851B
:104A3000F240624405618280011106CE22CC001052
:104A40002326A4FE2324B4FE832784FE0146BE85CC
:104A50000325C4FEEFF09FBEAA873E85F240624464
:104A600005618280011106CE22CC00102326A4FE0F
:104A7000EFF0BFA6AA873E85F240624405618280BE
:104A8000011106CE22CC00102326A4FE2324B4FE5E
:104A9000832784FE99EBB747402093850798032529
:104AA00084FEEFF01FA981470DA0032784FE8547F0
:104AB000631CF700B777402093850730032584FEF9
:104AC000EFF03FA7814711A0FD573E85F2406244B9
:104AD00005618280011122CE00102326A4FE23242A
:104AE000B4FE2322C4FE81473E8572440561828064
:104AF000397122DE80002326A4FC01458145232450
:104B0000A4FE2326B4FEF32500B82322B4FEF32529
:104B100000B02320B4FEF32500B8232EB4FC0325F7
:104B200044FE8325C4FDE310B5FE832544FE2E8894
:104B30008148931708000147832504FE2E8681468D
:104B4000B365C7002324B4FED58F2326F4FE0327C4
:104B500084FE8327C4FE3A85BE857254216182801B
:104B6000797106D622D44AD24ED00018232EA4FC46
:104B70008327C4FD81E70149814921A80325C4FD9C
:104B8000EFE05F992326A4FE8327C4FE3E89FD87BC
:104B9000BE894A87CE873A85BE85B25022541259C3
:104BA000825945618280797106D622D40018232E5D
:104BB000A4FC814701482320F4FE232204FF03259F
:104BC000C4FDEFE0DF972326A4FE8327C4FE8DC734
:104BD0008327C4FE83A7C7132324F4FE832784FE00
:104BE00081CF832784FE9C43F847930704FE3E86CB
:104BF0008545032584FE0297032704FE832744FE90
:104C00003A85BE85B250225445618280797106D6BC
:104C100022D426D20018232EA4FC2328B4FC232A55
:104C2000C4FCFD572326F4FE0325C4FDEFE03F91AD
:104C30002324A4FE832784FE8DCF832784FE83A7AD
:104C4000C7132322F4FE832744FE85C7832744FE2F
:104C50009C43A44B0325C4FDEFE09F89AA8703264C
:104C600004FD832644FDBE85032544FE829423264D
:104C7000A4FE8327C4FE3E85B2502254925445615F
:104C80008280011122CE00102326A4FEB7070080E7
:104C90009387C77A3E85724405618280011122CED6
:104CA00000102326A4FE9D473E8572440561828044
:104CB000011122CE00102326A4FEB707008093879F
:104CC000C77A3E85724405618280011122CE0010B0
:104CD0002326A4FE8D473E8572440561828079714A
:104CE00006D622D40018232EA4FC232CB4FCFD5796
:104CF0002326F4FE0325C4FDEFE07F842324A4FED5
:104D0000832784FE9DC7832784FE83A7C70D2322A4
:104D1000F4FE832744FE91CF832744FE9C43F8474B
:104D2000930784FD3E868D45032544FE0297232686
:104D3000A4FE8327C4FE3E85B25022544561828082
:104D4000797106D622D40018232EA4FC232CB4FC9F
:104D5000FD572326F4FE0325C4FDEFE04FFE232478
:104D6000A4FE832784FE9DC7832784FE83A7C70DE7
:104D70002322F4FE832744FE91CF832744FE9C43E5
:104D8000F847930784FD3E868945032544FE029734
:104D90002326A4FE8327C4FE3E85B25022544561DB
:104DA0008280797106D622D40018232EA4FC232CED
:104DB000B4FC232604FE0325C4FDEFE04FF82324B2
:104DC000A4FE832784FE9DC7832784FE83A7C70D87
:104DD0002322F4FE832744FE91CF832744FE9C4385
:104DE000F847930784FD3E869145032544FE0297CC
:104DF0002326A4FE8327C4FE3E85B250225445617B
:104E00008280011106CE22CC00102326A4FE0325A9
:104E1000C4FEEFE0CFF2AA873E85F240624405610E
:104E20008280797106D622D40018232EA4FC232C6C
:104E3000B4FC232AC4FC0325C4FDEFE04FF0232675
:104E4000A4FE8327C4FE99CB032644FD832584FD5D
:104E50000325C4FEEFF05F8AAA8711A0FD573E85A7
:104E6000B250225445618280011122CE00102326C7
:104E7000A4FE2324B4FE832784FE83D7070013F700
:104E800037008D476314F700914711A089473E858D
:104E9000724405618280797122D60018232EA4FC09
:104EA000F32710342326F4FE8327C4FE3E853254B4
:104EB00045618280011122CE00102326A4FE232406
:104EC000B4FE832784FE7390173481473E85724475
:104ED00005618280011106CE22CC00102326A4FE9B
:104EE0000325C4FEEFE04FE8AA873E85F240624406
:104EF00005618280011122CE00102326A4FE032723
:104F0000C4FEB7070080938787456315F700B7078E
:104F1000000C11A081473E85724405618280011119
:104F200022CE00102326A4FE0327C4FEB70700806C
:104F3000938787456314F700ED4711A081473E85AD
:104F4000724405618280011122CE00102326A4FE46
:104F50000327C4FEB7070080938787456314F700D3
:104F60009D4711A081473E857244056182800111F1
:104F700022CE00102326A4FE2324B4FE832784FE21
:104F800091E7B70700809387870811A081473E8586
:104F9000724405618280011122CE00102326A4FEF6
:104FA0002324B4FE832784FE99E3AD4711A08147F3
:104FB0003E85724405618280011122CE00102326B5
:104FC000A4FE8327C4FE99E3814711A0FD573E85C7
:104FD000724405618280797106D622D40018232E8E
:104FE000A4FC232CB4FC0325C4FD29372326A4FEEE
:104FF000832784FD1397C7008327C4FE3E97B70716
:1050000020009107BA979C433E85B25022544561D7
:105010008280797106D622D40018232EA4FC232C7A
:10502000B4FC232AC4FC0325C4FDE9352326A4FED1
:10503000832784FD1397C7008327C4FE3E97B707D5
:1050400020009107BA973E87832744FD1CC30100C7
:10505000B250225445618280797106D622D400185C
:10506000232EA4FC232CB4FC232AC4FC0325C4FD5A
:1050700051352326A4FE832784FD1397C700832779
:10508000C4FE3E97B7072000BA973E87832744FDAA
:105090001CC381473E85B25022544561828079719C
:1050A00006D622D40018232EA4FC232CB4FC0325FE
:1050B000C4FD89352326A4FE832784FD1397C700EA
:1050C0008327C4FE3E97B7072000BA979C433E85CE
:1050D000B250225445618280797106D622D40018DC
:1050E000232EA4FC232CB4FC232AC4FC0325C4FDDA
:1050F00011352326A4FE0325C4FDB135AA87232438
:10510000F4FE832784FE85C7032744FD832784FE9E
:10511000637FF700832784FD8A073E878327C4FEC9
:10512000BA973E87832744FD1CC3814711A0FD57D2
:105130003E85B250225445618280797106D622D4D0
:105140000018232EA4FC232CB4FC0325C4FD5D33DE
:105150002326A4FE832784FD8A073E878327C4FE77
:10516000BA979C433E85B250225445618280797142
:1051700006D622D40018232EA4FC232CB4FC232A08
:10518000C4FC2328D4FC0325C4FDEFF0BFD623269E
:10519000A4FE832784FD139777008327C4FEBA9764
:1051A000032744FD15870A073E978967BA979C43F2
:1051B0002324F4FE832704FD81CF832744FDFD8B48
:1051C0000547B317F7003E87832784FED98F29A8A8
:1051D000832744FDFD8B0547B317F70093C7F7FFFF
:1051E0003E87832784FEF98F032784FD931677007B
:1051F0000327C4FE3697832644FD95868A06BA9611
:10520000096736971CC381473E85B25022544561D9
:105210008280011106CE22CC00102326A4FE232476
:10522000B4FE1305C012EF20400B797106D622D4CC
:105230000018232EA4FC232CB4FC832784FD2326F2
:10524000F4FEEFE0AFB7AA873E85EFF0FFD6232448
:10525000A4FE832584FE0325C4FEEFF0DFD72322BE
:10526000A4FE0325C4FEEFF09FCBAA872320F4FE03
:10527000032744FE832704FE6372F7040327C4FE5A
:10528000832744FE8A07BA979C478DCB0327C4FE29
:10529000832744FE8A07BA9703A88700032644FEA3
:1052A0008326C4FE032744FEBA878607BA978E0773
:1052B000B69783A78708BE8532850298032644FEE9
:1052C000832584FE0325C4FEEFF0BFD40100B25055
:1052D000225445618280397106DE22DC800023265B
:1052E000A4FC8327C4FC2322F4FE832744FEDC4372
:1052F000639B0712232604FE39AA0325C4FCEFF0A2
:105300001FC22320A4FE8325C4FE0325C4FCEFF0A6
:105310001FC6232EA4FC8325C4FE0325C4FCEFF086
:105320009FC7232CA4FC8327C4FD9C439C430325D7
:10533000C4FD8297232404FE8DA88146032684FEA3
:105340008325C4FE032544FE1D35032784FE8327E1
:1053500004FE6357F7040146832584FE0325C4FC3D
:10536000EFF09FD7032744FE832784FE8A07BA976E
:1053700023A40700832644FE032784FEBA878607FA
:10538000BA978E07B69723A20708832644FE032701
:1053900084FEBA878607BA978E07B69723A40708B4
:1053A000832784FE85072324F4FE032784FE9307C6
:1053B000F03FE3D4E7F801468325C4FE0325C4FC8F
:1053C000EFF09FC98327C4FD9C43DC4F832644FE36
:1053D0000146832584FD0325C4FD82978327C4FDF0
:1053E0009C43D84F832644FEB75740201386A722FC
:1053F000832584FD0325C4FD02978327C4FD9C43B8
:10540000DC53832584FD0325C4FD82978327C4FED6
:1054100085072326F4FE8327C4FEE350F0EE83279E
:1054200044FE0547D8C30100F250625421618280D6
:10543000797106D622D40018232EA4FC232CB4FCA8
:10544000232AC4FC2328D4FC8327C4FD2326F4FE8E
:105450000325C4FDEFF0BFAC2A87832784FD63C416
:10546000E700FD5751A0832744FD9DCF09468325C2
:1054700084FD0325C4FDEFF03FC60327C4FE832748
:1054800084FD8A07BA97032744FD98C78326C4FE84
:10549000032784FDBA878607BA978E07B697032736
:1054A00004FD23A4E70881A00546832584FD032588
:1054B000C4FDEFF07FC20327C4FE832784FD8A0763
:1054C000BA97375740201307272198C78326C4FE71
:1054D000032784FDBA878607BA978E07B6970327F6
:1054E00004FD23A2E70881473E85B250225445615E
:1054F0008280797106D622D40018232EA4FC232C96
:10550000B4FC8327C4FD2326F4FE0325C4FDEFF07D
:105510001FA12A87832784FD63C4E700FD5729A8BC
:10552000EFE0CF89AA878546032684FDBE85032543
:10553000C4FEEFF0DFC381473E85B250225445617F
:105540008280797106D622D40018232EA4FC232C45
:10555000B4FC8327C4FD2326F4FE0325C4FDEFF02D
:105560001F9C2A87832784FD63C4E700FD5729A871
:10557000EFE0CF84AA878146032684FDBE850325FC
:10558000C4FEEFF0DFBE81473E85B2502254456134
:105590008280011106CE22CC00102326A4FE2324F3
:1055A000B4FEEFE0AF81AA87032684FEBE85032503
:1055B000C4FEEFF07FAAAA873E85F24062440561EF
:1055C0008280011106CE22CC00102326A4FEEFD04B
:1055D000FFFEAA87BE850325C4FEEFF05FACAA8755
:1055E0003E85F240624405618280797106D622D4FC
:1055F0000018232EA4FC232CB4FC232AC4FC232251
:1056000004FE8327C4FD2324F4FE0325C4FDEFF02C
:105610001F912A87832744FD63C8E700FD57232293
:10562000F4FE832744FE99A8232604FE99A083272D
:10563000C4FE95C78546032644FD8325C4FE032585
:1056400084FEEFF0DFB2AA8713F717008327C4FEAA
:105650003317F700832744FED98F2322F4FE8327D4
:10566000C4FE85072326F4FE832784FD8583232C2F
:10567000F4FC832784FDC5FF832744FE3E85B2509A
:10568000225445618280797106D622D40018232ED7
:10569000A4FC232CB4FC232AC4FC232204FE83276D
:1056A000C4FD2324F4FE0325C4FDEFF05F872A87A1
:1056B000832744FD63C8E700FD572322F4FE8327B8
:1056C00044FE99A8232604FE99A08327C4FE95C70B
:1056D0008146032644FD8325C4FE032584FEEFF0A6
:1056E0001FA9AA8713F717008327C4FE3317F700F3
:1056F000832744FED98F2322F4FE8327C4FE850727
:105700002326F4FE832784FD8583232CF4FC832742
:1057100084FDC5FF832744FE3E85B2502254456177
:105720008280797106D622D40018232EA4FC232C63
:10573000B4FC232AC4FC232404FE232604FE91A0E7
:105740008327C4FE8DC7032644FD8325C4FE03259D
:10575000C4FDEFF07F90AA8713F717008327C4FEDC
:105760003317F700832784FED98F2324F4FE832781
:10577000C4FE85072326F4FE832784FD8583232C1E
:10578000F4FC832784FDCDFF832784FE3E85B25041
:10579000225445618280011106CE22CC00102326BE
:1057A000A4FE2324B4FE832584FE0325C4FEEFF06B
:1057B0001F8F81473E85F24062440561828001115E
:1057C00022CE00102326A4FEB70700809387C706C9
:1057D0003E85724405618280011122CE001023268D
:1057E000A4FE938741823E85724405618280011147
:1057F00022CE00102326A4FE81473E857244056117
:105800008280411122C60008B7174020938747FEC7
:105810003E85324441018280397106DE22DC8000FF
:105820002326A4FC0325C4FC593F2326A4FE0325FC
:10583000C4FC753F2324A4FE0325C4FC713F23222E
:10584000A4FEC1372320A4FE832704FE9C438325A6
:1058500084FE032544FE8297232EA4FC0327C4FD67
:10586000B7070040F98F99E3FD5725A08327C4FDB2
:1058700063C40700FD5731A80325C4FEEF10900F45
:10588000AA873E878327C4FD93F7F7038507B3579D
:10589000F7023E85F250625421618280011106CEEA
:1058A00022CC00102326A4FE2324B4FE0325C4FE2C
:1058B000A537AA873E85F2406244056182800111C6
:1058C00022CE00102326A4FEB70700809387070688
:1058D0003E85724405618280011122CE001023268C
:1058E000A4FE938741823E85724405618280011146
:1058F00022CE00102326A4FE91473E857244056106
:105900008280411122C60008B7174020938747FEC6
:105910003E85324441018280397106DE22DC8000FE
:105920002326A4FC0325C4FC593F2326A4FE0325FB
:10593000C4FC753F2324A4FE0325C4FC713F23222D
:10594000A4FEC1372320A4FE832704FE9C438325A5
:1059500084FE032544FE8297232EA4FC0327C4FD66
:10596000B7070040F98F99E3FD5721A88327C4FDAD
:1059700063C40700FD5731A00325C4FEEF10807FEC
:10598000AA873E85F250625421618280011106CEC1
:1059900022CC00102326A4FE2324B4FE0325C4FE3B
:1059A000A53FAA873E85F2406244056182800111CD
:1059B00022CE00102326A4FEB707008093878777A6
:1059C0003E85724405618280011122CE001023269B
:1059D000A4FEB7070080938747783E85724405612F
:1059E0008280011122CE00102326A4FE93874182DB
:1059F0003E85724405618280011122CE001023266B
:105A0000A4FEB1473E85724405618280411122C6E1
:105A10000008938741823E853244410182804111D2
:105A200022C60008A1473E853244410182804111CF
:105A300022C60008B727F400938707403E8532440A
:105A400041018280411122C60008B78700103E85BF
:105A5000324441018280411122C60008B71740201C
:105A6000938747FE3E85324441018280011122CE58
:105A700000102326A4FE2324B4FE832784FE9C4723
:105A80000327C4FE6369F700832784FEDC470327EE
:105A9000C4FE63F4E700FD5729A8832784FE9843DA
:105AA0008327C4FE3307F702832784FEDC43B35702
:105AB000F7023E85724405618280397106DE22DC80
:105AC00080002326A4FC8327C4FC3E85F53D2326C5
:105AD000A4FEB13F2324A4FE99372322A4FE9D37C0
